{
  "_format": "hh-sol-artifact-1",
  "contractName": "CourseScoreService",
  "sourceName": "contracts/courseScoreService.sol",
  "abi": [
    {
      "inputs": [],
      "stateMutability": "nonpayable",
      "type": "constructor"
    },
    {
      "anonymous": false,
      "inputs": [
        {
          "indexed": false,
          "internalType": "address",
          "name": "_address",
          "type": "address"
        },
        {
          "indexed": false,
          "internalType": "uint256",
          "name": "_courseId",
          "type": "uint256"
        },
        {
          "indexed": false,
          "internalType": "uint8",
          "name": "_score",
          "type": "uint8"
        },
        {
          "indexed": false,
          "internalType": "address",
          "name": "_teacherAddress",
          "type": "address"
        }
      ],
      "name": "NewCouresScore",
      "type": "event"
    },
    {
      "anonymous": false,
      "inputs": [
        {
          "indexed": false,
          "internalType": "address",
          "name": "_address",
          "type": "address"
        },
        {
          "indexed": false,
          "internalType": "uint256",
          "name": "_courseId",
          "type": "uint256"
        }
      ],
      "name": "NewCouresTeacher",
      "type": "event"
    },
    {
      "inputs": [],
      "name": "owner",
      "outputs": [
        {
          "internalType": "address",
          "name": "",
          "type": "address"
        }
      ],
      "stateMutability": "view",
      "type": "function"
    },
    {
      "inputs": [
        {
          "internalType": "address",
          "name": "_address",
          "type": "address"
        },
        {
          "internalType": "uint256",
          "name": "_courseId",
          "type": "uint256"
        }
      ],
      "name": "setCourseTeacher",
      "outputs": [],
      "stateMutability": "nonpayable",
      "type": "function"
    },
    {
      "inputs": [
        {
          "internalType": "address",
          "name": "_address",
          "type": "address"
        },
        {
          "internalType": "uint256",
          "name": "_courseId",
          "type": "uint256"
        },
        {
          "internalType": "uint8",
          "name": "_score",
          "type": "uint8"
        },
        {
          "internalType": "address",
          "name": "_teacherAddress",
          "type": "address"
        }
      ],
      "name": "setStudentToCourse",
      "outputs": [],
      "stateMutability": "nonpayable",
      "type": "function"
    }
  ],
  "bytecode": "0x608060405234801561001057600080fd5b50336000806101000a81548173ffffffffffffffffffffffffffffffffffffffff021916908373ffffffffffffffffffffffffffffffffffffffff16021790555061069e806100606000396000f3fe608060405234801561001057600080fd5b50600436106100415760003560e01c80630158b4b9146100465780634b9b7a36146100625780638da5cb5b1461007e575b600080fd5b610060600480360381019061005b91906103c3565b61009c565b005b61007c6004803603810190610077919061043c565b6101b9565b005b610086610306565b60405161009391906104b2565b60405180910390f35b60008054906101000a900473ffffffffffffffffffffffffffffffffffffffff1673ffffffffffffffffffffffffffffffffffffffff163373ffffffffffffffffffffffffffffffffffffffff161461012a576040517f08c379a000000000000000000000000000000000000000000000000000000000815260040161012190610550565b60405180910390fd5b816002600083815260200190815260200160002060006101000a81548173ffffffffffffffffffffffffffffffffffffffff021916908373ffffffffffffffffffffffffffffffffffffffff1602179055507f09eb531606720520b7aff3a9454e3ef365cf7ae0f2df2ec635b014a5aaa4ce2982826040516101ad92919061057f565b60405180910390a15050565b8073ffffffffffffffffffffffffffffffffffffffff166002600085815260200190815260200160002060009054906101000a900473ffffffffffffffffffffffffffffffffffffffff1673ffffffffffffffffffffffffffffffffffffffff161461025a576040517f08c379a0000000000000000000000000000000000000000000000000000000008152600401610251906105f4565b60405180910390fd5b81600160008673ffffffffffffffffffffffffffffffffffffffff1673ffffffffffffffffffffffffffffffffffffffff168152602001908152602001600020600085815260200190815260200160002060006101000a81548160ff021916908360ff1602179055507ffcce5c8c75861f7903075f9ab2bfe5cbcece18845e9a79a3889f7c85928e8993848484846040516102f89493929190610623565b60405180910390a150505050565b60008054906101000a900473ffffffffffffffffffffffffffffffffffffffff1681565b600080fd5b600073ffffffffffffffffffffffffffffffffffffffff82169050919050565b600061035a8261032f565b9050919050565b61036a8161034f565b811461037557600080fd5b50565b60008135905061038781610361565b92915050565b6000819050919050565b6103a08161038d565b81146103ab57600080fd5b50565b6000813590506103bd81610397565b92915050565b600080604083850312156103da576103d961032a565b5b60006103e885828601610378565b92505060206103f9858286016103ae565b9150509250929050565b600060ff82169050919050565b61041981610403565b811461042457600080fd5b50565b60008135905061043681610410565b92915050565b600080600080608085870312156104565761045561032a565b5b600061046487828801610378565b9450506020610475878288016103ae565b935050604061048687828801610427565b925050606061049787828801610378565b91505092959194509250565b6104ac8161034f565b82525050565b60006020820190506104c760008301846104a3565b92915050565b600082825260208201905092915050565b7f596f7520617265206e6f7420746865206f776e6572206f66207468697320636f60008201527f6e74726163740000000000000000000000000000000000000000000000000000602082015250565b600061053a6026836104cd565b9150610545826104de565b604082019050919050565b600060208201905081810360008301526105698161052d565b9050919050565b6105798161038d565b82525050565b600060408201905061059460008301856104a3565b6105a16020830184610570565b9392505050565b7f796f752068617665206e6f20726967687420746f206f70657261746500000000600082015250565b60006105de601c836104cd565b91506105e9826105a8565b602082019050919050565b6000602082019050818103600083015261060d816105d1565b9050919050565b61061d81610403565b82525050565b600060808201905061063860008301876104a3565b6106456020830186610570565b6106526040830185610614565b61065f60608301846104a3565b9594505050505056fea26469706673582212202807491646e1fff3c6c1112888c2d9334af4a6c292cec152ae8cd282d3db55c564736f6c63430008090033",
  "linkReferences": {},
  "deployedLinkReferences": {}
}