{
  "_format": "hh-sol-artifact-1",
  "contractName": "CourseScoreService",
  "sourceName": "contracts/courseScoreService.sol",
  "abi": [
    {
      "inputs": [],
      "stateMutability": "nonpayable",
      "type": "constructor"
    },
    {
      "anonymous": false,
      "inputs": [
        {
          "indexed": false,
          "internalType": "address",
          "name": "_address",
          "type": "address"
        },
        {
          "indexed": false,
          "internalType": "uint256",
          "name": "_courseId",
          "type": "uint256"
        },
        {
          "indexed": false,
          "internalType": "uint8",
          "name": "_score",
          "type": "uint8"
        }
      ],
      "name": "NewCouresScore",
      "type": "event"
    },
    {
      "anonymous": false,
      "inputs": [
        {
          "indexed": false,
          "internalType": "address",
          "name": "_address",
          "type": "address"
        },
        {
          "indexed": false,
          "internalType": "uint256",
          "name": "_courseId",
          "type": "uint256"
        }
      ],
      "name": "NewCouresTeacher",
      "type": "event"
    },
    {
      "anonymous": false,
      "inputs": [
        {
          "indexed": false,
          "internalType": "address",
          "name": "_address",
          "type": "address"
        }
      ],
      "name": "UpdataAdmin",
      "type": "event"
    },
    {
      "inputs": [
        {
          "internalType": "address",
          "name": "_address",
          "type": "address"
        }
      ],
      "name": "addAdmin",
      "outputs": [],
      "stateMutability": "nonpayable",
      "type": "function"
    },
    {
      "inputs": [],
      "name": "getOwner",
      "outputs": [
        {
          "internalType": "address",
          "name": "",
          "type": "address"
        }
      ],
      "stateMutability": "view",
      "type": "function"
    },
    {
      "inputs": [],
      "name": "owner",
      "outputs": [
        {
          "internalType": "address",
          "name": "",
          "type": "address"
        }
      ],
      "stateMutability": "view",
      "type": "function"
    },
    {
      "inputs": [
        {
          "internalType": "address",
          "name": "_address",
          "type": "address"
        },
        {
          "internalType": "uint256",
          "name": "_courseId",
          "type": "uint256"
        }
      ],
      "name": "setCourseTeacher",
      "outputs": [],
      "stateMutability": "nonpayable",
      "type": "function"
    },
    {
      "inputs": [
        {
          "internalType": "address",
          "name": "_address",
          "type": "address"
        },
        {
          "internalType": "uint256",
          "name": "_courseId",
          "type": "uint256"
        },
        {
          "internalType": "uint8",
          "name": "_score",
          "type": "uint8"
        }
      ],
      "name": "setStudentToCourse",
      "outputs": [],
      "stateMutability": "nonpayable",
      "type": "function"
    }
  ],
  "bytecode": "0x608060405234801561001057600080fd5b50336000806101000a81548173ffffffffffffffffffffffffffffffffffffffff021916908373ffffffffffffffffffffffffffffffffffffffff1602179055506109ee806100606000396000f3fe608060405234801561001057600080fd5b50600436106100575760003560e01c80630158b4b91461005c5780637048027514610078578063893d20e8146100945780638da5cb5b146100b2578063f7943085146100d0575b600080fd5b610076600480360381019061007191906105e4565b6100ec565b005b610092600480360381019061008d9190610624565b610207565b005b61009c6103b4565b6040516100a99190610660565b60405180910390f35b6100ba6103dd565b6040516100c79190610660565b60405180910390f35b6100ea60048036038101906100e591906106b4565b610401565b005b600260003373ffffffffffffffffffffffffffffffffffffffff1673ffffffffffffffffffffffffffffffffffffffff16815260200190815260200160002060009054906101000a900460ff16610178576040517f08c379a000000000000000000000000000000000000000000000000000000000815260040161016f9061078a565b60405180910390fd5b816003600083815260200190815260200160002060006101000a81548173ffffffffffffffffffffffffffffffffffffffff021916908373ffffffffffffffffffffffffffffffffffffffff1602179055507f09eb531606720520b7aff3a9454e3ef365cf7ae0f2df2ec635b014a5aaa4ce2982826040516101fb9291906107b9565b60405180910390a15050565b60008054906101000a900473ffffffffffffffffffffffffffffffffffffffff1673ffffffffffffffffffffffffffffffffffffffff163373ffffffffffffffffffffffffffffffffffffffff1614610295576040517f08c379a000000000000000000000000000000000000000000000000000000000815260040161028c90610854565b60405180910390fd5b600260008273ffffffffffffffffffffffffffffffffffffffff1673ffffffffffffffffffffffffffffffffffffffff16815260200190815260200160002060009054906101000a900460ff1615610322576040517f08c379a0000000000000000000000000000000000000000000000000000000008152600401610319906108e6565b60405180910390fd5b6001600260008373ffffffffffffffffffffffffffffffffffffffff1673ffffffffffffffffffffffffffffffffffffffff16815260200190815260200160002060006101000a81548160ff0219169083151502179055507f23614fc273bb60ea6a7eae0969313702bd90fe930f9221286b190ced16b110e0816040516103a99190610660565b60405180910390a150565b60008060009054906101000a900473ffffffffffffffffffffffffffffffffffffffff16905090565b60008054906101000a900473ffffffffffffffffffffffffffffffffffffffff1681565b3373ffffffffffffffffffffffffffffffffffffffff166003600084815260200190815260200160002060009054906101000a900473ffffffffffffffffffffffffffffffffffffffff1673ffffffffffffffffffffffffffffffffffffffff16146104a2576040517f08c379a000000000000000000000000000000000000000000000000000000000815260040161049990610952565b60405180910390fd5b80600160008573ffffffffffffffffffffffffffffffffffffffff1673ffffffffffffffffffffffffffffffffffffffff168152602001908152602001600020600084815260200190815260200160002060006101000a81548160ff021916908360ff1602179055507f603869031044e1b9015daacf2245a318be60a06e4368b32ca04955a697503dbd83838360405161053e93929190610981565b60405180910390a1505050565b600080fd5b600073ffffffffffffffffffffffffffffffffffffffff82169050919050565b600061057b82610550565b9050919050565b61058b81610570565b811461059657600080fd5b50565b6000813590506105a881610582565b92915050565b6000819050919050565b6105c1816105ae565b81146105cc57600080fd5b50565b6000813590506105de816105b8565b92915050565b600080604083850312156105fb576105fa61054b565b5b600061060985828601610599565b925050602061061a858286016105cf565b9150509250929050565b60006020828403121561063a5761063961054b565b5b600061064884828501610599565b91505092915050565b61065a81610570565b82525050565b60006020820190506106756000830184610651565b92915050565b600060ff82169050919050565b6106918161067b565b811461069c57600080fd5b50565b6000813590506106ae81610688565b92915050565b6000806000606084860312156106cd576106cc61054b565b5b60006106db86828701610599565b93505060206106ec868287016105cf565b92505060406106fd8682870161069f565b9150509250925092565b600082825260208201905092915050565b7f596f752068617665206e6f742072696768747320746f2074686973206f70657260008201527f6174696f6e2c6f6e6c7941646d696e0000000000000000000000000000000000602082015250565b6000610774602f83610707565b915061077f82610718565b604082019050919050565b600060208201905081810360008301526107a381610767565b9050919050565b6107b3816105ae565b82525050565b60006040820190506107ce6000830185610651565b6107db60208301846107aa565b9392505050565b7f596f7520617265206e6f7420746865206f776e6572206f66207468697320636f60008201527f6e74726163740000000000000000000000000000000000000000000000000000602082015250565b600061083e602683610707565b9150610849826107e2565b604082019050919050565b6000602082019050818103600083015261086d81610831565b9050919050565b7f5468697320706572736f6e2068617320616c7265616479206265656e20616e2060008201527f61646d696e6973747261746f7200000000000000000000000000000000000000602082015250565b60006108d0602d83610707565b91506108db82610874565b604082019050919050565b600060208201905081810360008301526108ff816108c3565b9050919050565b7f796f752068617665206e6f20726967687420746f206f70657261746500000000600082015250565b600061093c601c83610707565b915061094782610906565b602082019050919050565b6000602082019050818103600083015261096b8161092f565b9050919050565b61097b8161067b565b82525050565b60006060820190506109966000830186610651565b6109a360208301856107aa565b6109b06040830184610972565b94935050505056fea2646970667358221220863fe3ecc24814704a9d72304637968c71aca731d8486af6067eb545be5952e864736f6c63430008090033",
  "linkReferences": {},
  "deployedLinkReferences": {}
}